{
  "contractName": "OfferServices",
  "abi": [
    {
      "inputs": [],
      "stateMutability": "nonpayable",
      "type": "constructor"
    },
    {
      "inputs": [],
      "name": "offerCounter",
      "outputs": [
        {
          "internalType": "uint256",
          "name": "",
          "type": "uint256"
        }
      ],
      "stateMutability": "view",
      "type": "function",
      "constant": true
    },
    {
      "inputs": [
        {
          "internalType": "uint256",
          "name": "",
          "type": "uint256"
        }
      ],
      "name": "offers",
      "outputs": [
        {
          "internalType": "uint256",
          "name": "id",
          "type": "uint256"
        },
        {
          "internalType": "string",
          "name": "title",
          "type": "string"
        },
        {
          "internalType": "string",
          "name": "description",
          "type": "string"
        },
        {
          "internalType": "address",
          "name": "owner",
          "type": "address"
        },
        {
          "internalType": "uint256",
          "name": "createdAt",
          "type": "uint256"
        }
      ],
      "stateMutability": "view",
      "type": "function",
      "constant": true
    },
    {
      "inputs": [
        {
          "internalType": "string",
          "name": "_title",
          "type": "string"
        },
        {
          "internalType": "string",
          "name": "_description",
          "type": "string"
        }
      ],
      "name": "createOffer",
      "outputs": [],
      "stateMutability": "nonpayable",
      "type": "function"
    },
    {
      "inputs": [
        {
          "internalType": "uint256",
          "name": "_id",
          "type": "uint256"
        }
      ],
      "name": "deleteOffer",
      "outputs": [],
      "stateMutability": "nonpayable",
      "type": "function"
    }
  ],
  "bytecode": "0x6080604052600080553480156200001557600080fd5b50620000766040518060400160405280601881526020017f4465736172726f6c6c61646f7220426c6f636b636861696e00000000000000008152506040518060600160405280602c81526020016200143e602c91396200031c60201b60201c565b620000d66040518060400160405280601581526020017f4465736172726f6c6c61646f722057656220332e300000000000000000000000815250604051806080016040528060608152602001620011c1606091396200031c60201b60201c565b620001366040518060400160405280601c81526020017f4a6566652064652067657374696f6e2064652070726f796563746f73000000008152506040518060800160405280604f81526020016200129e604f91396200031c60201b60201c565b620001966040518060400160405280601181526020017f4465736172726f6c6c61646f72205765620000000000000000000000000000008152506040518060a00160405280607d815260200162001221607d91396200031c60201b60201c565b620001f66040518060400160405280601681526020017f50726f6772616d61646f7220426c6f636b636861696e000000000000000000008152506040518060a00160405280606d81526020016200146a606d91396200031c60201b60201c565b620002566040518060400160405280601181526020017f446973656e61646f72204772616669636f000000000000000000000000000000815250604051806080016040528060588152602001620013e6605891396200031c60201b60201c565b620002b66040518060400160405280600f81526020017f50726f6772616d61646f722050485000000000000000000000000000000000008152506040518060c0016040528060878152602001620012ed608791396200031c60201b60201c565b620003166040518060400160405280601681526020017f50726f6772616d61646f72204a617661536372697074000000000000000000008152506040518060a001604052806072815260200162001374607291396200031c60201b60201c565b620005c4565b600080815480929190620003309062000511565b91905055506040518060a0016040528060005481526020018381526020018281526020013373ffffffffffffffffffffffffffffffffffffffff168152602001428152506001600080548152602001908152602001600020600082015181600001556020820151816001019080519060200190620003b092919062000428565b506040820151816002019080519060200190620003cf92919062000428565b5060608201518160030160006101000a81548173ffffffffffffffffffffffffffffffffffffffff021916908373ffffffffffffffffffffffffffffffffffffffff160217905550608082015181600401559050505050565b82805462000436906200058e565b90600052602060002090601f0160209004810192826200045a5760008555620004a6565b82601f106200047557805160ff1916838001178555620004a6565b82800160010185558215620004a6579182015b82811115620004a557825182559160200191906001019062000488565b5b509050620004b59190620004b9565b5090565b5b80821115620004d4576000816000905550600101620004ba565b5090565b7f4e487b7100000000000000000000000000000000000000000000000000000000600052601160045260246000fd5b6000819050919050565b60006200051e8262000507565b91507fffffffffffffffffffffffffffffffffffffffffffffffffffffffffffffffff821415620005545762000553620004d8565b5b600182019050919050565b7f4e487b7100000000000000000000000000000000000000000000000000000000600052602260045260246000fd5b60006002820490506001821680620005a757607f821691505b60208210811415620005be57620005bd6200055f565b5b50919050565b610bed80620005d46000396000f3fe608060405234801561001057600080fd5b506004361061004c5760003560e01c806374268ff2146100515780638a72ea6a1461006d578063b7a3c1da146100a1578063d41b266e146100bf575b600080fd5b61006b6004803603810190610066919061070d565b6100db565b005b6100876004803603810190610082919061070d565b61036e565b604051610098959493929190610823565b60405180910390f35b6100a96104d4565b6040516100b69190610884565b60405180910390f35b6100d960048036038101906100d491906109d4565b6104da565b005b6000600160008381526020019081526020016000206040518060a00160405290816000820154815260200160018201805461011590610a7b565b80601f016020809104026020016040519081016040528092919081815260200182805461014190610a7b565b801561018e5780601f106101635761010080835404028352916020019161018e565b820191906000526020600020905b81548152906001019060200180831161017157829003601f168201915b505050505081526020016002820180546101a790610a7b565b80601f01602080910402602001604051908101604052809291908181526020018280546101d390610a7b565b80156102205780601f106101f557610100808354040283529160200191610220565b820191906000526020600020905b81548152906001019060200180831161020357829003601f168201915b505050505081526020016003820160009054906101000a900473ffffffffffffffffffffffffffffffffffffffff1673ffffffffffffffffffffffffffffffffffffffff1673ffffffffffffffffffffffffffffffffffffffff1681526020016004820154815250509050806060015173ffffffffffffffffffffffffffffffffffffffff163373ffffffffffffffffffffffffffffffffffffffff16146102fd576040517f08c379a00000000000000000000000000000000000000000000000000000000081526004016102f490610b1f565b60405180910390fd5b6001600083815260200190815260200160002060008082016000905560018201600061032991906105e0565b60028201600061033991906105e0565b6003820160006101000a81549073ffffffffffffffffffffffffffffffffffffffff0219169055600482016000905550505050565b600160205280600052604060002060009150905080600001549080600101805461039790610a7b565b80601f01602080910402602001604051908101604052809291908181526020018280546103c390610a7b565b80156104105780601f106103e557610100808354040283529160200191610410565b820191906000526020600020905b8154815290600101906020018083116103f357829003601f168201915b50505050509080600201805461042590610a7b565b80601f016020809104026020016040519081016040528092919081815260200182805461045190610a7b565b801561049e5780601f106104735761010080835404028352916020019161049e565b820191906000526020600020905b81548152906001019060200180831161048157829003601f168201915b5050505050908060030160009054906101000a900473ffffffffffffffffffffffffffffffffffffffff16908060040154905085565b60005481565b6000808154809291906104ec90610b6e565b91905055506040518060a0016040528060005481526020018381526020018281526020013373ffffffffffffffffffffffffffffffffffffffff16815260200142815250600160008054815260200190815260200160002060008201518160000155602082015181600101908051906020019061056a929190610620565b506040820151816002019080519060200190610587929190610620565b5060608201518160030160006101000a81548173ffffffffffffffffffffffffffffffffffffffff021916908373ffffffffffffffffffffffffffffffffffffffff160217905550608082015181600401559050505050565b5080546105ec90610a7b565b6000825580601f106105fe575061061d565b601f01602090049060005260206000209081019061061c91906106a6565b5b50565b82805461062c90610a7b565b90600052602060002090601f01602090048101928261064e5760008555610695565b82601f1061066757805160ff1916838001178555610695565b82800160010185558215610695579182015b82811115610694578251825591602001919060010190610679565b5b5090506106a291906106a6565b5090565b5b808211156106bf5760008160009055506001016106a7565b5090565b6000604051905090565b600080fd5b600080fd5b6000819050919050565b6106ea816106d7565b81146106f557600080fd5b50565b600081359050610707816106e1565b92915050565b600060208284031215610723576107226106cd565b5b6000610731848285016106f8565b91505092915050565b610743816106d7565b82525050565b600081519050919050565b600082825260208201905092915050565b60005b83811015610783578082015181840152602081019050610768565b83811115610792576000848401525b50505050565b6000601f19601f8301169050919050565b60006107b482610749565b6107be8185610754565b93506107ce818560208601610765565b6107d781610798565b840191505092915050565b600073ffffffffffffffffffffffffffffffffffffffff82169050919050565b600061080d826107e2565b9050919050565b61081d81610802565b82525050565b600060a082019050610838600083018861073a565b818103602083015261084a81876107a9565b9050818103604083015261085e81866107a9565b905061086d6060830185610814565b61087a608083018461073a565b9695505050505050565b6000602082019050610899600083018461073a565b92915050565b600080fd5b600080fd5b7f4e487b7100000000000000000000000000000000000000000000000000000000600052604160045260246000fd5b6108e182610798565b810181811067ffffffffffffffff82111715610900576108ff6108a9565b5b80604052505050565b60006109136106c3565b905061091f82826108d8565b919050565b600067ffffffffffffffff82111561093f5761093e6108a9565b5b61094882610798565b9050602081019050919050565b82818337600083830152505050565b600061097761097284610924565b610909565b905082815260208101848484011115610993576109926108a4565b5b61099e848285610955565b509392505050565b600082601f8301126109bb576109ba61089f565b5b81356109cb848260208601610964565b91505092915050565b600080604083850312156109eb576109ea6106cd565b5b600083013567ffffffffffffffff811115610a0957610a086106d2565b5b610a15858286016109a6565b925050602083013567ffffffffffffffff811115610a3657610a356106d2565b5b610a42858286016109a6565b9150509250929050565b7f4e487b7100000000000000000000000000000000000000000000000000000000600052602260045260246000fd5b60006002820490506001821680610a9357607f821691505b60208210811415610aa757610aa6610a4c565b5b50919050565b7f596f752063616e6e6f742064656c65746520616e206f6666657220796f75206860008201527f617665206e6f7420637265617465640000000000000000000000000000000000602082015250565b6000610b09602f83610754565b9150610b1482610aad565b604082019050919050565b60006020820190508181036000830152610b3881610afc565b9050919050565b7f4e487b7100000000000000000000000000000000000000000000000000000000600052601160045260246000fd5b6000610b79826106d7565b91507fffffffffffffffffffffffffffffffffffffffffffffffffffffffffffffffff821415610bac57610bab610b3f565b5b60018201905091905056fea26469706673582212208e9f45237aa7102874ad7a3cd30ac6c4621f8107f905e8a176a46b11007a5d5964736f6c634300080b0033536f7920756e2070726f6772616d61646f72207920657374756469616e746520696e746572657361646f20656e20656c206d756e646f2064656c206465736172726f6c6c6f207765622079206c612064657363656e7472616c697a6163696f6e536f7920756e20696e67656e6965726f2064656c20736f66747761726520636f6e20706f636120657870657269656e63696120656e20656c206d756e646f2064656c206465736172726f6c6c6f20776562207065726f20636f6e206d75636861732067616e61732064652067616e617220657870657269656e6369612e4f6672657a636f206d6920736572766963696f20636f6d6f206a656665206465206465736172726f6c6c6f20736f66747761726520656e2070726f796563746f732064652046756c6c20537461636b536f7920756e20696e67656e6965726f2064656c20736f66747761726520636f6e206d7563686120657870657269656e63696120656e20656c206d756e646f2064656c206465736172726f6c6c6f207765622c20736f627265746f646f20656e206c656e6775616a65205048502079206465736172726f6c6c6f20636f6e20416e67756c61722e536f7920756e2070726f6772616d61646f7220636f6e20706f636120657870657269656e63696120656e20656c206d756e646f2064656c206465736172726f6c6c6f20776562207065726f20636f6e206d75636861732067616e61732064652067616e617220657870657269656e6369612e4d6520657370656369616c697a6f20656e206461726c65206170617269656e6369612061206c6173207765627320612074726176657320646520756e2066726f6e74656e64206c6c616d617469766f2079206c696d70696f536f7920756e206465736172726f6c6c61646f7220646520626c6f636b636861696e20646520323120792f6f536f7920756e2070726f6772616d61646f72206a6f76656e20656e74757369617374612064656c206d756e646f2064656c20736f6674776172652064657363656e7472616c697a61646f2079206c6120696e666f726d6163696f6e206c69627265207920616363657369626c65",
  "immutableReferences": {},
  "source": "// SPDX-License-Identifier: MIT\npragma solidity 0.8.11;\n\ncontract OfferServices {\n    \n    uint public offerCounter = 0;\n\n    constructor () {\n        createOffer(\"Desarrollador Blockchain\", \"Soy un desarrollador de blockchain de 21 y/o\");\n        createOffer(\"Desarrollador Web 3.0\", \"Soy un programador y estudiante interesado en el mundo del desarrollo web y la descentralizacion\");\n        createOffer(\"Jefe de gestion de proyectos\", \"Ofrezco mi servicio como jefe de desarrollo software en proyectos de Full Stack\");\n        createOffer(\"Desarrollador Web\", \"Soy un ingeniero del software con poca experiencia en el mundo del desarrollo web pero con muchas ganas de ganar experiencia.\");\n        createOffer(\"Programador Blockchain\", \"Soy un programador joven entusiasta del mundo del software descentralizado y la informacion libre y accesible\");\n        createOffer(\"Disenador Grafico\", \"Me especializo en darle apariencia a las webs a traves de un frontend llamativo y limpio\");\n        createOffer(\"Programador PHP\", \"Soy un ingeniero del software con mucha experiencia en el mundo del desarrollo web, sobretodo en lenguaje PHP y desarrollo con Angular.\");\n        createOffer(\"Programador JavaScript\", \"Soy un programador con poca experiencia en el mundo del desarrollo web pero con muchas ganas de ganar experiencia.\");\n    }\n\n    struct Offer {\n        uint id;\n        string title;\n        string description;\n        address owner;\n        uint256 createdAt;\n    }\n\n    mapping (uint => Offer) public offers;\n    function createOffer(string memory _title ,string memory _description) public {\n        offerCounter++;\n        offers[offerCounter] = Offer(offerCounter,_title,_description, msg.sender, block.timestamp);\n        \n    }\n    function deleteOffer(uint _id ) public {\n        Offer memory _offer = offers[_id];\n        require(msg.sender == _offer.owner , \n        \"You cannot delete an offer you have not created\");\n        delete offers[_id];\n    }\n\n\n}",
  "sourcePath": "/Users/alvarobernal/Desktop/dServices/web-app/contracts/OfferServices.sol",
  "compiler": {
    "name": "solc",
    "version": "0.8.11+commit.d7f03943.Emscripten.clang"
  },
  "schemaVersion": "3.4.4",
  "updatedAt": "2022-02-02T16:43:26.286Z",
  "networkType": "ethereum",
  "devdoc": {
    "kind": "dev",
    "methods": {},
    "version": 1
  },
  "userdoc": {
    "kind": "user",
    "methods": {},
    "version": 1
  }
}