{
  "contractName": "OfferServices",
  "abi": [
    {
      "inputs": [],
      "stateMutability": "nonpayable",
      "type": "constructor"
    },
    {
      "inputs": [],
      "name": "offerCounter",
      "outputs": [
        {
          "internalType": "uint256",
          "name": "",
          "type": "uint256"
        }
      ],
      "stateMutability": "view",
      "type": "function",
      "constant": true
    },
    {
      "inputs": [
        {
          "internalType": "uint256",
          "name": "",
          "type": "uint256"
        }
      ],
      "name": "offers",
      "outputs": [
        {
          "internalType": "uint256",
          "name": "id",
          "type": "uint256"
        },
        {
          "internalType": "string",
          "name": "title",
          "type": "string"
        },
        {
          "internalType": "string",
          "name": "description",
          "type": "string"
        },
        {
          "internalType": "address",
          "name": "owner",
          "type": "address"
        },
        {
          "internalType": "uint256",
          "name": "createdAt",
          "type": "uint256"
        }
      ],
      "stateMutability": "view",
      "type": "function",
      "constant": true
    },
    {
      "inputs": [
        {
          "internalType": "string",
          "name": "_title",
          "type": "string"
        },
        {
          "internalType": "string",
          "name": "_description",
          "type": "string"
        }
      ],
      "name": "createOffer",
      "outputs": [],
      "stateMutability": "nonpayable",
      "type": "function"
    },
    {
      "inputs": [
        {
          "internalType": "uint256",
          "name": "_id",
          "type": "uint256"
        }
      ],
      "name": "deleteOffer",
      "outputs": [],
      "stateMutability": "nonpayable",
      "type": "function"
    }
  ],
  "bytecode": "0x6080604052600080553480156200001557600080fd5b50620000766040518060400160405280601881526020017f4465736172726f6c6c61646f7220426c6f636b636861696e00000000000000008152506040518060600160405280602c815260200162000f21602c91396200007c60201b60201c565b62000324565b600080815480929190620000909062000278565b91905055506040518060a0016040528060005481526020018381526020018281526020013373ffffffffffffffffffffffffffffffffffffffff1681526020014281525060016000805481526020019081526020016000206000820151816000015560208201518160010190805190602001906200011092919062000188565b5060408201518160020190805190602001906200012f92919062000188565b5060608201518160030160006101000a81548173ffffffffffffffffffffffffffffffffffffffff021916908373ffffffffffffffffffffffffffffffffffffffff160217905550608082015181600401559050505050565b828054620001969062000242565b90600052602060002090601f016020900481019282620001ba576000855562000206565b82601f10620001d557805160ff191683800117855562000206565b8280016001018555821562000206579182015b8281111562000205578251825591602001919060010190620001e8565b5b50905062000215919062000219565b5090565b5b80821115620002345760008160009055506001016200021a565b5090565b6000819050919050565b600060028204905060018216806200025b57607f821691505b60208210811415620002725762000271620002f5565b5b50919050565b6000620002858262000238565b91507fffffffffffffffffffffffffffffffffffffffffffffffffffffffffffffffff821415620002bb57620002ba620002c6565b5b600182019050919050565b7f4e487b7100000000000000000000000000000000000000000000000000000000600052601160045260246000fd5b7f4e487b7100000000000000000000000000000000000000000000000000000000600052602260045260246000fd5b610bed80620003346000396000f3fe608060405234801561001057600080fd5b506004361061004c5760003560e01c806374268ff2146100515780638a72ea6a1461006d578063b7a3c1da146100a1578063d41b266e146100bf575b600080fd5b61006b600480360381019061006691906107c0565b6100db565b005b610087600480360381019061008291906107c0565b61036e565b6040516100989594939291906108a2565b60405180910390f35b6100a96104d4565b6040516100b69190610887565b60405180910390f35b6100d960048036038101906100d49190610748565b6104da565b005b6000600160008381526020019081526020016000206040518060a001604052908160008201548152602001600182018054610115906109f3565b80601f0160208091040260200160405190810160405280929190818152602001828054610141906109f3565b801561018e5780601f106101635761010080835404028352916020019161018e565b820191906000526020600020905b81548152906001019060200180831161017157829003601f168201915b505050505081526020016002820180546101a7906109f3565b80601f01602080910402602001604051908101604052809291908181526020018280546101d3906109f3565b80156102205780601f106101f557610100808354040283529160200191610220565b820191906000526020600020905b81548152906001019060200180831161020357829003601f168201915b505050505081526020016003820160009054906101000a900473ffffffffffffffffffffffffffffffffffffffff1673ffffffffffffffffffffffffffffffffffffffff1673ffffffffffffffffffffffffffffffffffffffff1681526020016004820154815250509050806060015173ffffffffffffffffffffffffffffffffffffffff163373ffffffffffffffffffffffffffffffffffffffff16146102fd576040517f08c379a00000000000000000000000000000000000000000000000000000000081526004016102f490610867565b60405180910390fd5b6001600083815260200190815260200160002060008082016000905560018201600061032991906105e0565b60028201600061033991906105e0565b6003820160006101000a81549073ffffffffffffffffffffffffffffffffffffffff0219169055600482016000905550505050565b6001602052806000526040600020600091509050806000015490806001018054610397906109f3565b80601f01602080910402602001604051908101604052809291908181526020018280546103c3906109f3565b80156104105780601f106103e557610100808354040283529160200191610410565b820191906000526020600020905b8154815290600101906020018083116103f357829003601f168201915b505050505090806002018054610425906109f3565b80601f0160208091040260200160405190810160405280929190818152602001828054610451906109f3565b801561049e5780601f106104735761010080835404028352916020019161049e565b820191906000526020600020905b81548152906001019060200180831161048157829003601f168201915b5050505050908060030160009054906101000a900473ffffffffffffffffffffffffffffffffffffffff16908060040154905085565b60005481565b6000808154809291906104ec90610a56565b91905055506040518060a0016040528060005481526020018381526020018281526020013373ffffffffffffffffffffffffffffffffffffffff16815260200142815250600160008054815260200190815260200160002060008201518160000155602082015181600101908051906020019061056a929190610620565b506040820151816002019080519060200190610587929190610620565b5060608201518160030160006101000a81548173ffffffffffffffffffffffffffffffffffffffff021916908373ffffffffffffffffffffffffffffffffffffffff160217905550608082015181600401559050505050565b5080546105ec906109f3565b6000825580601f106105fe575061061d565b601f01602090049060005260206000209081019061061c91906106a6565b5b50565b82805461062c906109f3565b90600052602060002090601f01602090048101928261064e5760008555610695565b82601f1061066757805160ff1916838001178555610695565b82800160010185558215610695579182015b82811115610694578251825591602001919060010190610679565b5b5090506106a291906106a6565b5090565b5b808211156106bf5760008160009055506001016106a7565b5090565b60006106d66106d184610928565b610903565b9050828152602081018484840111156106f2576106f1610b31565b5b6106fd8482856109b1565b509392505050565b600082601f83011261071a57610719610b2c565b5b813561072a8482602086016106c3565b91505092915050565b60008135905061074281610ba0565b92915050565b6000806040838503121561075f5761075e610b3b565b5b600083013567ffffffffffffffff81111561077d5761077c610b36565b5b61078985828601610705565b925050602083013567ffffffffffffffff8111156107aa576107a9610b36565b5b6107b685828601610705565b9150509250929050565b6000602082840312156107d6576107d5610b3b565b5b60006107e484828501610733565b91505092915050565b6107f681610975565b82525050565b600061080782610959565b6108118185610964565b93506108218185602086016109c0565b61082a81610b40565b840191505092915050565b6000610842602f83610964565b915061084d82610b51565b604082019050919050565b610861816109a7565b82525050565b6000602082019050818103600083015261088081610835565b9050919050565b600060208201905061089c6000830184610858565b92915050565b600060a0820190506108b76000830188610858565b81810360208301526108c981876107fc565b905081810360408301526108dd81866107fc565b90506108ec60608301856107ed565b6108f96080830184610858565b9695505050505050565b600061090d61091e565b90506109198282610a25565b919050565b6000604051905090565b600067ffffffffffffffff82111561094357610942610afd565b5b61094c82610b40565b9050602081019050919050565b600081519050919050565b600082825260208201905092915050565b600061098082610987565b9050919050565b600073ffffffffffffffffffffffffffffffffffffffff82169050919050565b6000819050919050565b82818337600083830152505050565b60005b838110156109de5780820151818401526020810190506109c3565b838111156109ed576000848401525b50505050565b60006002820490506001821680610a0b57607f821691505b60208210811415610a1f57610a1e610ace565b5b50919050565b610a2e82610b40565b810181811067ffffffffffffffff82111715610a4d57610a4c610afd565b5b80604052505050565b6000610a61826109a7565b91507fffffffffffffffffffffffffffffffffffffffffffffffffffffffffffffffff821415610a9457610a93610a9f565b5b600182019050919050565b7f4e487b7100000000000000000000000000000000000000000000000000000000600052601160045260246000fd5b7f4e487b7100000000000000000000000000000000000000000000000000000000600052602260045260246000fd5b7f4e487b7100000000000000000000000000000000000000000000000000000000600052604160045260246000fd5b600080fd5b600080fd5b600080fd5b600080fd5b6000601f19601f8301169050919050565b7f596f752063616e6e6f742064656c65746520616e206f6666657220796f75206860008201527f617665206e6f7420637265617465640000000000000000000000000000000000602082015250565b610ba9816109a7565b8114610bb457600080fd5b5056fea2646970667358221220d29bd5f4e61f06e16ff487edc9afd4400a8435b3183d0d764ff1364917f1458e64736f6c63430008060033536f7920756e206465736172726f6c6c61646f7220646520626c6f636b636861696e20646520323120792f6f",
  "immutableReferences": {},
  "source": "// SPDX-License-Identifier: MIT\npragma solidity ^0.8.6;\n\ncontract OfferServices {\n    \n    uint public offerCounter = 0;\n\n    constructor () {\n        createOffer(\"Desarrollador Blockchain\", \"Soy un desarrollador de blockchain de 21 y/o\");\n    }\n\n    struct Offer {\n        uint id;\n        string title;\n        string description;\n        address owner;\n        uint256 createdAt;\n    }\n\n    mapping (uint => Offer) public offers;\n    function createOffer(string memory _title ,string memory _description) public {\n        offerCounter++;\n        offers[offerCounter] = Offer(offerCounter,_title,_description, msg.sender, block.timestamp);\n        \n    }\n    function deleteOffer(uint _id ) public {\n        Offer memory _offer = offers[_id];\n        require(msg.sender == _offer.owner , \n        \"You cannot delete an offer you have not created\");\n        delete offers[_id];\n    }\n\n\n}",
  "sourcePath": "/Users/javiervilarinomayo/Desktop/dServices/backend/contracts/OfferServices.sol",
  "compiler": {
    "name": "solc",
    "version": "0.8.6+commit.11564f7e.Emscripten.clang"
  },
  "schemaVersion": "3.4.4",
  "updatedAt": "2022-01-26T08:05:56.214Z",
  "networkType": "ethereum",
  "devdoc": {
    "kind": "dev",
    "methods": {},
    "version": 1
  },
  "userdoc": {
    "kind": "user",
    "methods": {},
    "version": 1
  }
}